:020000022000DC
:1060000000000120F1620200196302001B6302001C
:106010001D6302001F6302002163020000000000F4
:1060200000000000000000000000000023630200E8
:1060300025630200000000002763020029630200BC
:106040002B6302002B6302002B6302002B63020010
:106050002B6302002B6302002B6302002B63020000
:106060002B6302002B6302002B6302002B630200F0
:106070002B6302002B6302002B6302002B630200E0
:106080002B6302002B6302002B6302002B630200D0
:106090002B6302002B630200116802002B630200D5
:1060A0002B6302002B6302002B6302002B630200B0
:1060B0002B6302002B6302000000000000000000C0
:1060C0002B6302002B6302002B6302002B63020090
:1060D0002B6302002B6302002B6302000000000010
:1060E00000000000000000000000000000000000B0
:1060F00000000000000000000000000000000000A0
:10610000000000000000000000000000000000008F
:10611000000000000000000000000000000000007F
:10612000000000000000000000000000000000006F
:10613000000000000000000000000000000000005F
:10614000000000000000000000000000000000004F
:10615000000000000000000000000000000000003F
:10616000000000000000000000000000000000002F
:10617000000000000000000000000000000000001F
:10618000000000000000000000000000000000000F
:1061900000000000000000000000000000000000FF
:1061A00000000000000000000000000000000000EF
:1061B00000000000000000000000000000000000DF
:1061C00000000000000000000000000000000000CF
:1061D00000000000000000000000000000000000BF
:1061E00000000000000000000000000000000000AF
:1061F000000000000000000000000000000000009F
:106200000348044B834202D0034B03B11847704745
:10621000D4590020D4590020000000000548064948
:106220000B1AD90F01EBA301491002D0034B03B1A4
:1062300018477047D4590020D459002000000000AE
:1062400010B5064C237843B9FFF7DAFF044B13B1BE
:106250000448AFF300800123237010BDD4590020FF
:1062600000000000D46A020008B5044B1BB10449C9
:106270000448AFF30080BDE80840CFE7000000000D
:10628000D8590020D46A0200134B002B08BF114BD1
:106290009D46A3F5803A00218B460F461148124ACD
:1062A000121A00F045FB0D4B002B00D098470C4B09
:1062B000002B00D098470020002104000D000B485F
:1062C00000F0E4FA00F010FB2000290000F0AEF826
:1062D00000F0E2FA000008000000012000000000C9
:1062E00000000000D4590020805A0020C16802003C
:1062F0000649074A074B9B1A03DD043BC858D05098
:10630000FBDC00F0ABF8FFF7BFFF0000E86A02001B
:1063100068590020D4590020FEE7FEE7FEE7FEE7BB
:10632000FEE7FEE7FEE7FEE7FEE7FEE7074B4FF07E
:10633000A041185CD1F804350122824022EA030012
:106340001340C1F80805C1F80C357047A06A020077
:10635000C20730B41AD54FF0A0430322C3F8442734
:106360004FF40035C3F848274FF48024C3F84C2776
:106370004FF40021C3F850274FF48012C3F808559A
:10638000C3F80845C3F80815C3F8082583070AD5DC
:106390004FF0A0430C22C3F83427C3F83827C3F8C2
:1063A0003C27C3F8402730BC704700BF00B585B01C
:1063B0000346002101AA44F20100CDE90111039333
:1063C00000F004F805B05DF804FB00BF72B6094B9D
:1063D0001B68DB0700D500BEBFF34F8F0649074B94
:1063E000CA6802F4E0621343CB60BFF34F8F00BF73
:1063F000FDE700BFF0ED00E000ED00E00400FA056D
:1064000001600B6843604A68934204BF0023436005
:10641000704700BF436843B1026891680B44436012
:106420005268934204BF00234360704770B5012057
:10643000094DFFF78DFF45F0010500263046FFF7B7
:1064400075FF4FF4FA744FF47A40A847013CFAD133
:106450000136042EF2D1F0E7B06A020030B4B84B36
:106460001B78062B20D0B74B1B68062B00F08180D1
:10647000B54AD2F8883043F47003C2F88830BFF3CD
:106480004F8FBFF36F8F4FF01023D3F80022002AF5
:10649000C0F28681D3F80432002BC0F28181AB4B6D
:1064A000AB4A1A6030BC7047AA4B1B681D07DAD193
:1064B000A94B1B6803F0F002302A00F09B8003F028
:1064C000E003402B00F09680A34B1B6803F0F00321
:1064D000302B00F0A080A04B1B6803F0F002302AA4
:1064E00077D003F0E003402B73D09B4B1B6803F085
:1064F000F003302B00F01481974B1B6803F0F0027F
:10650000302A52D003F0E003402B4ED0924B1B6850
:1065100003F0F003302B00F0F5808F4B1B6803F085
:10652000F003302B00F0D7808B4B1B6803F0F00397
:10653000502B7ED0884B1B6803F0F002302A23D00A
:1065400003F0E003402B1FD0834B1B6803F0F002E5
:10655000302A03D003F0E003402B84D14FF0804376
:10656000D3F80024D20744BF6FF00102C3F800241F
:1065700079E77A4B1B68062B7FF47AAF784A136869
:1065800043F48063136073E7764B6D4A1B6812789F
:10659000754903F04F03062A0B607FF464AF6D4B1F
:1065A0001B6819077FF45FAFCEE7654A11784FF09B
:1065B000804300220629C3F80C21C3F81021C3F838
:1065C00038257FF450AF634B1B681B077FF44BAF3C
:1065D0009CE7664B5A4A1B6812786549C3F34233FD
:1065E000062A0B607FF43FAF5A4B1B6819077FF4F4
:1065F0003AAF7AE75F4B524A1B6812785E49C3F3A1
:106600000423062A0B607FF42EAF524B1B681C0735
:106610007FF429AF58E74A4B584A1B785849116014
:10662000062B7FF420AF4B4B1B6818077FF41BAF82
:1066300051E74FF08052534BD2F80414C3F82015A1
:10664000D2F80814C3F82415D2F80C14C3F828158E
:10665000D2F81014C3F82C15D2F81414C3F830155E
:10666000D2F81814C3F83415D2F81C14C3F8401526
:10667000D2F82014C3F84415D2F82414C3F84815EE
:10668000D2F82814C3F84C15D2F82C14C3F85015BE
:10669000D2F83014C3F85415D2F83414C3F8601586
:1066A000D2F83814C3F86415D2F83C14C3F868154E
:1066B000D2F840142248C3F86C15D2F8441402787A
:1066C000C3F87015062A7FF4CEAE224B1B6818075C
:1066D0007FF4C9AE2EE71A4B2B4C1B782B492C4864
:1066E0002C4A0525256001250D6000243F21062B3D
:1066F000046011607FF4B7AE164B1B681C077FF473
:10670000B2AE11E70E4B244A1B780321062B116011
:106710007FF4A9AE0F4B1B681D077FF4A4AEFCE607
:106720001E4A0749D368097823F080730629D3608D
:106730007FF499AE074B1B681A077FF494AEDBE633
:10674000E00F00F03001001000ED00E0685900207B
:106750000090D003E40F00F0E80F00F034010010C7
:106760003C17004058020010E40E004044020010A4
:106770003C050040240300104035014074C0074030
:106780000DF0ADBA00C000401056004088560040E1
:106790001856004014560040A0050040F0ED00E0FF
:1067A000184A0123C2F80435D2F80034002BFBD07C
:1067B0004FF010231521134AC3F80012D2F8003409
:1067C000002BFBD04FF0102315210E4AC3F8041202
:1067D000D2F80034002BFBD000230A49C2F804355C
:1067E000D1F80034002BFBD0BFF34F8F0649074B85
:1067F000CA6802F4E0621343CB60BFF34F8F00BF5F
:10680000FDE700BF00E0014000ED00E00400FA05F4
:1068100000B583B008496846FFF7F2FD019B43B11C
:10682000D3E9002090476846FFF7F4FD019B002B59
:10683000F6D103B05DF804FBB86A02004BDF704785
:1068400010B5114C84B001A8FFF7F8FFA8B9214694
:1068500002A8FFF7D5FD039B002BF4D0D3E900215C
:106860000198904702A8FFF7D5FD039B002BF5D1B7
:1068700001A8FFF7E3FF0028E9D0052801D0FFF7C2
:1068800095FD04B010BD00BFC46A0200002301469C
:106890001A46184600F054B808B5074B044613B121
:1068A000002100F09BF8054B1868836A03B19847F4
:1068B000204600F0E7F800BFDD690200D06A020060
:1068C00038B5074D074C641BA4101CB9BDE838400F
:1068D00000F0E0B8013C55F824309847F5E700BFD8
:1068E000D0590020D459002070B50D4D0D4C641BBB
:1068F000A4100026A64209D10B4D0C4C00F0C4F8A0
:10690000641BA4100026A64205D170BD55F8043BB7
:1069100098470136EEE755F8043B98470136F2E711
:10692000CC590020CC590020CC590020D05900204F
:1069300002440346934200D1704703F8011BF9E774
:106940002DE9F0411F46214B1C6805460E46904636
:1069500034B91F4C1C601F4B13B11B68C4F888303E
:1069600063681F2B03DD4FF0FF30BDE8F0812DB3CE
:10697000D4F8880068B9184B002BF4D04FF4847019
:10698000AFF300800028EED00023C0E94033C4F804
:106990008800636840F8238001229A4000EB83015D
:1069A000D0F800311343022DC0F80031C1F88070D7
:1069B00002BFD0F804311A43C0F8042163685A1C9E
:1069C00002336260002044F82360CEE77C5A002046
:1069D000F059002000000000000000002DE9F74FF2
:1069E000DFF89C8007460E464FF0010AD8F80050A9
:1069F0003DB16C68D5F888B0013C05F10809002C60
:106A000002DA03B0BDE8F08F56B1BBF1000F01D13F
:106A1000013CF4E70BF1800252F82420B242F7D196
:106A2000696859F824200139A1421ABF002349F8A6
:106A300024306C60002AEBD06B680193BBF1000F2F
:106A400006D0DBF800110AFA04FC1CEA010F09D198
:106A500090470B4B69681A68019B9942C6D19542D1
:106A6000D6D0C3E7DBF804015BF824101CEA000F62
:106A700002D138469047ECE708469047E9E700BF67
:106A80007C5A0020FEE700BFF8B500BFF8BC08BC88
:106A90009E467047F8B500BFF8BC08BC9E467047DC
:106AA000111213140000000000000000000000009C
:106AB0000338FDD870470000D86A0200E06A02007F
:106AC00008000000D86A0200D86A0200080000002E
:086AD0006C59002000000000D9
:086AD80041680200000000000B
:086AE000A8F7FF7F0100000090
:106AE8000090D0030000000000000000000000003B
:106AF800000000000000000000000000000000008E
:106B0800000000000000000000000000000000007D
:106B1800000000000000000000000000000000006D
:106B2800000000000000000000000000000000005D
:106B3800000000000000000000000000000000004D
:0C6B4800000000006962020041620200CF
:04000003200062F186
:00000001FF
